:020000040800F2
:1000000090020020D50000088D030008C5020008FA
:1000100000000000000000000000000000000000E0
:10002000000000000000000000000000BD05000806
:100030000000000000000000090400083507000867
:10004000E700000800000000E7000008E7000008E3
:10005000E7000008E7000008E7000008E7000008E4
:10006000E7000008E7000008E7000008E7000008D4
:10007000E7000008E7000008E7000008E7000008C4
:1000800000000000E7000008000000000000000081
:1000900000000000E7000008E7000008E700000893
:1000A00000000000E700000800000000E700000872
:1000B0000000000000000000000000000000000040
:1000C0000348854600F02AF800480047D10E000892
:1000D000900200200448804704480047FEE7FEE7FE
:1000E000FEE7FEE7FEE7FEE73D070008C100000867
:1000F00030B50B46014600202022012409E00D46C0
:10010000D5409D4205D31D469540491B2546954047
:1001100040191546521E002DF1DC30BD064C01255C
:10012000064E05E0E36807CC2B430C3C984710349F
:10013000B442F7D3FFF7C8FFC8140008E81400085A
:1001400031B57D21C9000B480068FFF7D1FF044697
:1001500000F0D4FA002801D000BFFEE7064900985D
:10016000086000BF044800680028FBD1034908610B
:10017000886138BD000000201800002000E000E089
:10018000F0B500220023002400BF3DE0012595408A
:100190002B460D681D402C469C4234D10D79012D13
:1001A00002D00D79022D16D1856857000326BE4076
:1001B000B54385604D795600B54086683543856006
:1001C000456801269640B543456045688E7996405E
:1001D000B6B235434560056857000326BE40B543B7
:1001E00005600D795600B540066835430560C56861
:1001F00057000326BE40B543C560CD795600B540D3
:10020000C6683543C560521C102ABFD30D7A002D35
:1002100004D1056B0E683543056303E0056B0E687A
:10022000B5430563F0BDF0B5002300244D07EE0E85
:100230001546B5402B46CD10AE0005462035AD59CC
:100240004E07F70E0F26BE40B543CE10B600074648
:100250002037BD51CD10AE003D46AD591D432C4653
:10026000CD10AD003E467451F0BD81627047816192
:10027000704700000EB50121480700F0D7F80121B2
:10028000080500F0C3F8012000F086F900BF0B4814
:10029000406A022108400028F9D001216846017116
:1002A00000218171012141710021C1710220009062
:1002B00069460348FFF764FF0EBD000000100240CE
:1002C000000C004800BFFEE7F8B504460E4617468E
:1002D0000025002E01D004200543002F01D0082066
:1002E000054329460948FFF7C0FF7D21C900614346
:1002F0000846FFF725FF29460448FFF7B8FF7D2190
:10030000C90061430846FFF71BFFF8BD000C004819
:100310000EB50121080500F079F80C2000900121AC
:1003200068460171417169460348FFF729FF0C21B6
:100330000148FFF79CFF0EBD000C00480EB50121DF
:10034000C80400F063F8182000900121684601718C
:1003500041710021817169460148FFF711FF0EBD0F
:100360000008004810B508210348FFF77EFF102160
:100370000148FFF77CFF10BD0008004810B51821A8
:100380000148FFF772FF10BD0008004870470000E9
:1003900010B5002819DA1A4A03071B0F083B9B08FF
:1003A0009B00D2588307DC0EFF23A3409A434B07E0
:1003B0001B0E8407E40EA3401A43114B0407240FBD
:1003C000083CA408A4001A5118E00E4A03231B029B
:1003D000D21883089B00D2588307DC0EFF23A3406A
:1003E0009A434B071B0E8407E40EA3401A43054BA8
:1003F000032424021B198408A4001A5110BD000014
:100400001CED00E000E100E070470000002905D08D
:10041000054A52690243044B5A6104E0024A526998
:100420008243014B5A61704700100240002905D0F9
:10043000054AD2690243044BDA6104E0024AD269F8
:100440008243014BDA61704700100240002905D059
:10045000054A92690243044B9A6104E0024A926998
:100460008243014B9A6170470010024070B5044608
:1004700000250026414840680C2108400546002D13
:1004800004D0042D05D00C2D09D105E03C48206096
:1004900008E03B48206005E03A48206000BF38484B
:1004A000206000BF00BF35484068F0210840054685
:1004B0002D09680034490E5A31462068FFF718FEAE
:1004C00060602E48406807210902084005462D0A51
:1004D0002E48465D6068F040A0602D480069800F9E
:1004E000800700280DD12548C030806A1F21890669
:1004F00008400546AD0EA91C2648FFF7F9FDE0604F
:1005000016E023480069800F80070121890788428F
:1005100003D0A0684008E0600AE01D480069800F31
:1005200080070121C907884202D0A0688008E060E6
:100530001248006B10210840102802D0104820619A
:1005400001E0206820610D48006B8007800F0028C3
:1005500002D1A068606110E00848006B8007800F3E
:10056000012802D12068606107E00448006B800721
:10057000800F032801D10248606170BD0010024065
:100580000048E80150BD0100A0140008C014000894
:10059000002401400090D003002806D00649496A93
:1005A00001221143044A516205E00349496A49089E
:1005B0004900014A51627047001002407047000034
:1005C000F8B50025002600270020009000240E48E2
:1005D000056A280C0090ACB20098204000280FD18A
:1005E0000A4807680A480740E006000E6105890EC0
:1005F000090208430646054800683043034908607D
:1006000000F008F8F8BD000000F8FF1F00100240DD
:100610000700FFFF85B00020049003900290019036
:100620000090334800680121084331490860304890
:10063000C030806A0F21C90288432D49C0318862C9
:100640000846806A0721C90208432949C0318862E7
:1006500000BF274800680221084003900498401C0E
:1006600004900398002803D1224904988842F0D1CD
:100670001F48006802210840002802D00120039092
:1006800001E000200390039801282FD11A48006848
:1006900002900298C008C00002900221029808430C
:1006A00015490860124840680190F021019888437C
:1006B00001900F4901984860084640680090072162
:1006C000090200988843009009490098486008464C
:1006D000406880088000486008464068486000BF65
:1006E000034840680C2108400028F9D105B0704744
:1006F00000100240FFFF00000020024010B5044639
:10070000601E0A49884201D9012010BD601E0849B7
:10071000486107210020C043FFF73AFE002004494A
:100720008861072008610020EFE70000FFFFFF005D
:1007300000E000E010B500F023F810BD10B50D4842
:100740000068012108430B490860084640680A49CF
:100750000840084948600846006B13218843054952
:10076000086300208860FFF72BFF002003494863DF
:1007700010BD0000001002401CB8FFF840200240ED
:1007800004480068002804D002480068401E01495F
:100790000860704718000020002904D00268012377
:1007A0001A43026003E00268520852000260704778
:1007B00002460020D3690B40002B01D0012000E04D
:1007C0000020704770B502460B460024002100252A
:1007D00000201E04350ED9B201268E403146012D6F
:1007E00002D11668314006E0022D02D15668314030
:1007F00001E0966831401C0C0126A6403446D669BB
:100800003440002903D0002C01D0012000E000205A
:1008100070BDF8B503460024002600960025002090
:1008200018460E04340ECEB200960127009EB74043
:100830003D46022C01D1001D02E0032C00D10830FE
:10084000002A03D006682E43066002E00668AE4325
:100850000660F8BDF0B587B004460D4600270020BD
:10086000069000262068400840002060666803214A
:100870000903304688430646A86806436660266832
:1008800027480640E9686868084329690843064321
:100890002660A66803210902304688430646686937
:1008A0000643A6606846FFF7E1FD1E48844202D178
:1008B0000598069001E00298069020680121C9037E
:1008C000084000280CD02968069A5000FFF710FC59
:1008D00007462968069A5000FFF70AFC0E4609E011
:1008E00029680698FFF704FC074629680698FFF771
:1008F000FFFB0E4628684008B04200D87F1C2068E5
:100900000121C9030840002806D03807460F3846A1
:100910000549084030430746B8B2E06007B0F0BD73
:10092000F3E9FFFF00380140F0FF00000146486A8C
:10093000C005C00D7047CA05D20D82627047000025
:1009400010B507490748FFF73DFF002806D00548C6
:10095000FFF7ECFFC4B2204600F084FC10BD00009D
:10096000050105000038014010B504462146054840
:10097000FFF7E1FF00BF40210248FFF719FF012800
:10098000F9D110BD0038014000B589B0012108053A
:10099000FFF73CFD01214804FFF738FD01218803E2
:1009A000FFF754FD012203210920C006FFF73BFC9D
:1009B000012206211948FFF736FC0221684601771B
:1009C0000021817740200690012168464177C17758
:1009D00006A91248FFF7D4FB0820069006A90920B3
:1009E000C006FFF7CDFB4B20C00100900020059012
:1009F0000C20049000200390029001906946084862
:100A0000FFF728FF012207490548FFF702FF0121F0
:100A10000348FFF7C1FE09B000BD0000000C00480C
:100A2000003801400501050030B47446641E257885
:100A3000641CAB4204D3635D5B00E31830BC184711
:100A40001D46F8E702E008C8121F08C1002AFAD1C3
:100A500070477047002001E001C1121F002AFBD13E
:100A60007047000010B505480178022000F040FAF8
:100A700003480178032000F0D3FA10BD1C000020C9
:100A80001D00002001460020087800024A7810432B
:100A900000028A7810430002CA78104370470000B1
:100AA000F0B585B004463149E01C085C029002981C
:100AB0000300FFF7B9FF0F090C0F121D2125564740
:100AC00056565656564A560000F0E6F94AE000F0EF
:100AD00025FB47E000F0D8F944E02449A01D085C5C
:100AE0002349087000220321084600F095FC39E0F4
:100AF00001202049087035E001201F49087031E0CD
:100B00001A49201D085C07020A46611D515C0F430B
:100B1000002514E0A01D4019801C1449085C060241
:100B2000A01D4019C01C085C801986B20919891DD6
:100B3000481900F023F80390301D281885B2BD42F3
:100B4000E8DB0FE0FFF78EFF0CE00849A01D085C12
:100B50000190E01D085C00900099019800F0CAFB2C
:100B600000E000BF00BF05B0F0BD00002000002085
:100B7000130000201100002012000020FEB50446E2
:100B800026786778A0780502E078401985B230466B
:100B900000F062F901900198400007494018407840
:100BA000B84201D00020FEBD2A46211D304600F08B
:100BB00029F800900098F6E778140008F8B5044684
:100BC0000D462946204600F067FA074639460720B9
:100BD00000F08EF90646012E00D1F8BD0020FCE79A
:100BE000F8B504460D462946204600F055FA07465A
:100BF0003946092000F07CF90646012E00D1F8BDE7
:100C00000020FCE7F8B505460E4617462B00FFF717
:100C10000BFF154E0C12184E1E242A30364E4E4E27
:100C20004E4E4E4E4E3C42484E003946304600F045
:100C300072F804463CE03946304600F07AF8044643
:100C400036E03946304600F048F8044630E0394690
:100C5000304600F0B1F804462AE03946304600F04C
:100C600087F8044624E039463046FFF7A7FF0446DC
:100C70001EE03946304600F0CFF8044618E0394609
:100C80003046FFF7ADFF044612E03946304600F02B
:100C9000B1F804460CE03946304600F00CF8044642
:100CA00006E03946304600F075F8044600E000BF23
:100CB00000BF2046F8BDF8B504460D46294620463B
:100CC00000F0EAF907463946132000F011F906460C
:100CD000012E00D1F8BD0020FCE7F8B506460F460E
:100CE0003946304600F0DEF90546002D09D0FFF701
:100CF00039FBFF212D3169430846FFF721FAFFF741
:100D00003DFB2946032000F08BF90446012C00D15D
:100D1000F8BD0020FCE770B504460D462A46214682
:100D2000012000F045F90646012E00D170BD0020DB
:100D3000FCE7F8B506460F463946304600F0ACF9F8
:100D40000546002D05D1002211461046FFF7BCFADA
:100D500004E0012211461046FFF7B6FA29460220A8
:100D600000F0C6F80446012C00D1F8BD0020FCE7D5
:100D7000F8B504460D462946204600F08DF9074691
:100D80003946062000F0B4F80646012E00D1F8BD21
:100D90000020FCE7F8B504460D462946204600F041
:100DA0007BF907463946142000F0A2F80646012ECA
:100DB00000D1F8BD0020FCE7F8B506460F463946DD
:100DC000304600F06CF90546002D04D0012D03D00B
:100DD000022D03D101E002E001E000E000BF00BF0E
:100DE0002946052000F0B8F80446012C00D1F8BDD2
:100DF0000020FCE7F8B504460D462946204600F0E1
:100E000051F907463946122000F00AF90646012E2C
:100E100000D1F8BD0020FCE7F8B504460D46294690
:100E2000204600F039F907463946082000F060F8FE
:100E30000646012E00D1F8BD0020FCE730B5024681
:100E40000020002305E01578521C2C18E0B25C1C31
:100E5000A3B28B42F7DB30BD70B5054600F012F847
:100E60000646002407E060000549085CA84200D15E
:100E700003E0601CC4B2B442F5DB00BF204670BD85
:100E8000781400081420704710B50024224603216E
:100E9000022000F0C1FA10BD10B500240B48007804
:100EA000002808D10021204600F0B6F9C4B2012084
:100EB0000649087004E00121204600F0ADF9C4B2F3
:100EC00022460321002000F0A7FA10BD14000020E4
:100ED000FFF71EFAFFF732FAFFF7CCF9FFF754FDE0
:100EE00000F0F2F903E000F00BFAFFF729FDFAE752
:100EF00070B504460D46002616480078012800D13A
:100F000070BD2146304600F087F906460121304683
:100F100000F082F906460021304600F07DF90646D1
:100F20000121304600F078F90646002D05D1002158
:100F3000304600F071F9064604E00121304600F029
:100F40006BF9064632460321072000F065FA0120BE
:100F5000D6E700001000002070B504460E460025BC
:100F600012480078012800D170BD2146284600F0C3
:100F700053F905460421284600F04EF905460021A4
:100F8000284600F049F905460121284600F044F9B9
:100F900005463146284600F03FF905462A4603211A
:100FA000072000F039FA0120DEE7000010000020E1
:100FB000F7B506461446002718480078012800D1E6
:100FC000FEBD3146384600F027F907460021384675
:100FD00000F022F907462546E017000E40190004EC
:100FE000010E384600F018F90746E017000E4019C8
:100FF00000120002201AC1B2384600F00DF907466F
:1010000022463846019900F0F5F807463A46032192
:10101000072000F001FA0120D2E7000010000020B4
:1010200070B505460C4600261A480078012800D104
:1010300070BD2946304600F0EFF8064602213046E2
:1010400000F0EAF806460021304600F0E5F80646D2
:101050000421304600F0E0F80646210E304600F04C
:10106000DBF806462002010E304600F0D5F80646B1
:101070002004010E304600F0CFF80646E1B23046BB
:1010800000F0CAF8064632460321072000F0C4F9F2
:101090000120CDE71000002002461078704702467C
:1010A0001078704710B503460C461846FFF7EAFC67
:1010B00010BDF0B505460E4613462A463446002DAF
:1010C00001D0002E01D10020F0BDA24202D9E018CB
:1010D000904208D2002103E0605C5054481C81B269
:1010E0009942F9DB09E0194605E0481E205C4F1ED5
:1010F000D055481E81B20029F7DC2846E4E70146B6
:101100000022002900D17047002200E0521C0B7819
:10111000491C002BFAD11046F5E7000070B50024F9
:1011200025A0FFF7ECFF85B22A4623A1204600F058
:1011300061F8C4B222A0FFF7E2FF85B22A4620A1DF
:10114000204600F057F8C4B222A0FFF7D8FF85B2BE
:101150002A4620A1204600F04DF8C4B21FA0FFF798
:10116000CEFF85B22A461DA1204600F043F8C4B246
:101170001CA0FFF7C4FF85B22A461AA1204600F042
:1011800039F8C4B219A0FFF7BAFF85B22A4617A1F1
:10119000204600F02FF8C4B215A0FFF7B0FF85B2CB
:1011A0002A4613A1204600F025F8C4B222460321A6
:1011B000012000F031F970BD7B2270223A2200003C
:1011C0007370766A6A6E646C727778626A79336774
:1011D00000000000222C2276223A2200312E302EEE
:1011E00030000000222C226D223A00003200000064
:1011F0007D000000F8B504460E461546054807195F
:101200002A4631463846FFF754FF601984B220461B
:10121000F8BD00005C000020024B1A181170431C3E
:1012200098B270475C0000200B4909680B4A1268AD
:1012300091420FD008490A6809498A4202D31739F6
:10124000054A116004490968087803490968491C7E
:10125000014A1160704700000C00002008000020C7
:101260005600002012490968124A1268891A012999
:101270001CD0104909680E4A1268914206D90D49DE
:1012800009680B4A1268891A17290FD209490A6896
:1012900009498A4202D31739064A1160054909688B
:1012A000087004490968491C024A1160704700002F
:1012B0000C000020080000205600002010B5044655
:1012C0002046FFF751FB10BD054806490860064956
:1012D0000860002005490870FF2005490870704724
:1012E0003F000020080000200C000020100000201B
:1012F00013000020002802D1002900D000BF704751
:1013000070B50024002509E0FFF78EFF36490A88F2
:101310000988491C344B1980344988543248008864
:101320001F2803D200F09AF80028EDDC2E48008830
:10133000072800DA70BD3FE02C48005D552802D038
:10134000601C84B238E02949601C085CAA2802D0DD
:10135000601C84B230E02549A01C085C002802D043
:10136000A01C84B228E02149201D085C0502601DF4
:10137000085CC01D401985B2262D02D9E01C84B23C
:101380001AE019480088001BA84200DA19E06A1E1A
:1013900091B2164A1019FFF751FD6119491E134AFF
:1013A000515C884202D0E01C84B205E02046FFF781
:1013B00077FB601984B200BF0B480088001B072828
:1013C000BADA00BF08480088001B074908800846B1
:1013D0000088002806DD05480119034802880348F3
:1013E000FFF767FE00BFA5E70400002020000020F3
:1013F00070B504460D46002C01D0002D00D170BD03
:1014000003E02078FFF75AFF641C2846691E8DB25E
:101410000028F6D100BFF2E7F8B505460E4614469F
:10142000002755200C490870AA204870084686708D
:10143000C570201208714C71E01D84B2601E81B22B
:101440000548FFF7FBFC0746601E03490F54214681
:101450000148FFF7CDFFF8BD5600002004480068A2
:1014600004490968884201D0012070470020FCE748
:10147000080000200C000020010002010302040407
:10148000050406010701080109010A040B020C0109
:101490000D040E050F0210021102120213011401B5
:1014A000010006000100010001000100010001002F
:1014B000020004000800100040008000000100024B
:1014C0000000000001020304E814000800000020EE
:1014D00020000000440A0008081500082000002031
:1014E00070020000540A00080048E80100000000F3
:1014F00000000000000000000000000000000000EC
:081500000000000001010000E1
:04000005080000C12E
:00000001FF
